{
  "transactions": [
    {
      "hash": "0x4b6928bab89a935446b1e8465605380f0a73ce497b2353407acc80bd0fbcdfbe",
      "transactionType": "CALL",
      "contractName": null,
      "contractAddress": "0xc02aaa39b223fe8d0a0e5c4f27ead9083c756cc2",
      "function": "deposit()",
      "arguments": [],
      "transaction": {
        "from": "0xf39fd6e51aad88f6f4ce6ab8827279cfffb92266",
        "to": "0xc02aaa39b223fe8d0a0e5c4f27ead9083c756cc2",
        "gas": "0x9f9b",
        "value": "0x6f05b59d3b20000",
        "input": "0xd0e30db0",
        "nonce": "0x1fa",
        "chainId": "0x1"
      },
      "additionalContracts": [],
      "isFixedGasLimit": false
    },
    {
      "hash": "0x5ddc5e3c48de0a2e4455a738240a3a1dc48ea14213f1c1950ed9038e9fa06c26",
      "transactionType": "CALL",
      "contractName": null,
      "contractAddress": "0xc02aaa39b223fe8d0a0e5c4f27ead9083c756cc2",
      "function": "approve(address,uint256)",
      "arguments": [
        "0xE592427A0AEce92De3Edee1F18E0157C05861564",
        "500000000000000000"
      ],
      "transaction": {
        "from": "0xf39fd6e51aad88f6f4ce6ab8827279cfffb92266",
        "to": "0xc02aaa39b223fe8d0a0e5c4f27ead9083c756cc2",
        "gas": "0x8d19",
        "value": "0x0",
        "input": "0x095ea7b3000000000000000000000000e592427a0aece92de3edee1f18e0157c0586156400000000000000000000000000000000000000000000000006f05b59d3b20000",
        "nonce": "0x1fb",
        "chainId": "0x1"
      },
      "additionalContracts": [],
      "isFixedGasLimit": false
    },
    {
      "hash": "0x45be508eeb49369a7bc631b86cdd46510824b108563bd68cfd4b5ee28ede06eb",
      "transactionType": "CALL",
      "contractName": null,
      "contractAddress": "0xe592427a0aece92de3edee1f18e0157c05861564",
      "function": "exactInputSingle((address,address,uint24,address,uint256,uint256,uint256,uint160))",
      "arguments": [
        "(0xC02aaA39b223FE8D0A0e5C4F27eAD9083C756Cc2, 0xA0b86991c6218b36c1d19D4a2e9Eb0cE3606eB48, 3000, 0x9f7cF1d1F558E57ef88a59ac3D47214eF25B6A06, 1693070433, 500000000000000000, 0, 0)"
      ],
      "transaction": {
        "from": "0xf39fd6e51aad88f6f4ce6ab8827279cfffb92266",
        "to": "0xe592427a0aece92de3edee1f18e0157c05861564",
        "gas": "0x2d994",
        "value": "0x6f05b59d3b20000",
        "input": "0x414bf389000000000000000000000000c02aaa39b223fe8d0a0e5c4f27ead9083c756cc2000000000000000000000000a0b86991c6218b36c1d19d4a2e9eb0ce3606eb480000000000000000000000000000000000000000000000000000000000000bb80000000000000000000000009f7cf1d1f558e57ef88a59ac3d47214ef25b6a060000000000000000000000000000000000000000000000000000000064ea346100000000000000000000000000000000000000000000000006f05b59d3b2000000000000000000000000000000000000000000000000000000000000000000000000000000000000000000000000000000000000000000000000000000000000",
        "nonce": "0x1fc",
        "chainId": "0x1"
      },
      "additionalContracts": [],
      "isFixedGasLimit": false
    }
  ],
  "receipts": [
    {
      "status": "0x1",
      "cumulativeGasUsed": "0x6d22",
      "logs": [
        {
          "address": "0xc02aaa39b223fe8d0a0e5c4f27ead9083c756cc2",
          "topics": [
            "0xe1fffcc4923d04b559f4d29a8bfc6cda04eb5b0d3c460751c2402c5c5cc9109c",
            "0x000000000000000000000000f39fd6e51aad88f6f4ce6ab8827279cfffb92266"
          ],
          "data": "0x00000000000000000000000000000000000000000000000006f05b59d3b20000",
          "blockHash": "0xc243f53f504ded0be93c267e748baed78d032cf3caa7d49c200e79157496eefd",
          "blockNumber": "0x112a885",
          "blockTimestamp": "0x64ea3422",
          "transactionHash": "0x4b6928bab89a935446b1e8465605380f0a73ce497b2353407acc80bd0fbcdfbe",
          "transactionIndex": "0x0",
          "logIndex": "0x0",
          "removed": false
        }
      ],
      "logsBloom": "0x00000000000000000000000000000000000000000000000000000000000000000000000000000000000000000000000002000000080000000000000000000000000000000000000000000000000000000000000000000000000000008000000000000000000000000000000100000000000000000000000000000000000000000000000000000000000000000000000000000001000000000000000000000000000000000000000000000000000000000000000000000000000000000000000000000000000000200000000000000000000000002000000000000000000000000000200000000000000000000000000000000000000000400000000000000000",
      "type": "0x2",
      "transactionHash": "0x4b6928bab89a935446b1e8465605380f0a73ce497b2353407acc80bd0fbcdfbe",
      "transactionIndex": "0x0",
      "blockHash": "0xc243f53f504ded0be93c267e748baed78d032cf3caa7d49c200e79157496eefd",
      "blockNumber": "0x112a885",
      "gasUsed": "0x6d22",
      "effectiveGasPrice": "0x3062b0510",
      "blobGasPrice": "0x1",
      "from": "0xf39fd6e51aad88f6f4ce6ab8827279cfffb92266",
      "to": "0xc02aaa39b223fe8d0a0e5c4f27ead9083c756cc2",
      "contractAddress": null
    },
    {
      "status": "0x1",
      "cumulativeGasUsed": "0x6628",
      "logs": [
        {
          "address": "0xc02aaa39b223fe8d0a0e5c4f27ead9083c756cc2",
          "topics": [
            "0x8c5be1e5ebec7d5bd14f71427d1e84f3dd0314c0f7b2291e5b200ac8c7c3b925",
            "0x000000000000000000000000f39fd6e51aad88f6f4ce6ab8827279cfffb92266",
            "0x000000000000000000000000e592427a0aece92de3edee1f18e0157c05861564"
          ],
          "data": "0x00000000000000000000000000000000000000000000000006f05b59d3b20000",
          "blockHash": "0x291f9814c662cf34b73b4568bf892598950aa9163373bbfc6f5832647ae0a33b",
          "blockNumber": "0x112a886",
          "blockTimestamp": "0x64ea3422",
          "transactionHash": "0x5ddc5e3c48de0a2e4455a738240a3a1dc48ea14213f1c1950ed9038e9fa06c26",
          "transactionIndex": "0x0",
          "logIndex": "0x0",
          "removed": false
        }
      ],
      "logsBloom": "0x00000002000000000000000000000000000000000000000000000000000000000000000000000000000000000000000002000000080000000000000000200000000000000000000000000000000000000000000000000000000000000000000000000000000000000000100100000000000000000000000000000000000000000000000000000000000000000000000000000000000000000000000000000000020000000000000000000000800000000000000000000000000000000000000000000000000000200000000000000000000000002000000000000000000000000010200000000000000000000000000000000000000000000000000000000000",
      "type": "0x2",
      "transactionHash": "0x5ddc5e3c48de0a2e4455a738240a3a1dc48ea14213f1c1950ed9038e9fa06c26",
      "transactionIndex": "0x0",
      "blockHash": "0x291f9814c662cf34b73b4568bf892598950aa9163373bbfc6f5832647ae0a33b",
      "blockNumber": "0x112a886",
      "gasUsed": "0x6628",
      "effectiveGasPrice": "0x2a65229c5",
      "blobGasPrice": "0x1",
      "from": "0xf39fd6e51aad88f6f4ce6ab8827279cfffb92266",
      "to": "0xc02aaa39b223fe8d0a0e5c4f27ead9083c756cc2",
      "contractAddress": null
    },
    {
      "status": "0x1",
      "cumulativeGasUsed": "0x2765c",
      "logs": [
        {
          "address": "0xa0b86991c6218b36c1d19d4a2e9eb0ce3606eb48",
          "topics": [
            "0xddf252ad1be2c89b69c2b068fc378daa952ba7f163c4a11628f55a4df523b3ef",
            "0x0000000000000000000000008ad599c3a0ff1de082011efddc58f1908eb6e6d8",
            "0x0000000000000000000000009f7cf1d1f558e57ef88a59ac3d47214ef25b6a06"
          ],
          "data": "0x00000000000000000000000000000000000000000000000000000000310faf64",
          "blockHash": "0x291f9814c662cf34b73b4568bf892598950aa9163373bbfc6f5832647ae0a33b",
          "blockNumber": "0x112a886",
          "blockTimestamp": "0x64ea3422",
          "transactionHash": "0x45be508eeb49369a7bc631b86cdd46510824b108563bd68cfd4b5ee28ede06eb",
          "transactionIndex": "0x1",
          "logIndex": "0x1",
          "removed": false
        },
        {
          "address": "0xc02aaa39b223fe8d0a0e5c4f27ead9083c756cc2",
          "topics": [
            "0xe1fffcc4923d04b559f4d29a8bfc6cda04eb5b0d3c460751c2402c5c5cc9109c",
            "0x000000000000000000000000e592427a0aece92de3edee1f18e0157c05861564"
          ],
          "data": "0x00000000000000000000000000000000000000000000000006f05b59d3b20000",
          "blockHash": "0x291f9814c662cf34b73b4568bf892598950aa9163373bbfc6f5832647ae0a33b",
          "blockNumber": "0x112a886",
          "blockTimestamp": "0x64ea3422",
          "transactionHash": "0x45be508eeb49369a7bc631b86cdd46510824b108563bd68cfd4b5ee28ede06eb",
          "transactionIndex": "0x1",
          "logIndex": "0x2",
          "removed": false
        },
        {
          "address": "0xc02aaa39b223fe8d0a0e5c4f27ead9083c756cc2",
          "topics": [
            "0xddf252ad1be2c89b69c2b068fc378daa952ba7f163c4a11628f55a4df523b3ef",
            "0x000000000000000000000000e592427a0aece92de3edee1f18e0157c05861564",
            "0x0000000000000000000000008ad599c3a0ff1de082011efddc58f1908eb6e6d8"
          ],
          "data": "0x00000000000000000000000000000000000000000000000006f05b59d3b20000",
          "blockHash": "0x291f9814c662cf34b73b4568bf892598950aa9163373bbfc6f5832647ae0a33b",
          "blockNumber": "0x112a886",
          "blockTimestamp": "0x64ea3422",
          "transactionHash": "0x45be508eeb49369a7bc631b86cdd46510824b108563bd68cfd4b5ee28ede06eb",
          "transactionIndex": "0x1",
          "logIndex": "0x3",
          "removed": false
        },
        {
          "address": "0x8ad599c3a0ff1de082011efddc58f1908eb6e6d8",
          "topics": [
            "0xc42079f94a6350d7e6235f29174924f928cc2ac818eb64fed8004e115fbcca67",
            "0x000000000000000000000000e592427a0aece92de3edee1f18e0157c05861564",
            "0x0000000000000000000000009f7cf1d1f558e57ef88a59ac3d47214ef25b6a06"
          ],
          "data": "0xffffffffffffffffffffffffffffffffffffffffffffffffffffffffcef0509c00000000000000000000000000000000000000000000000006f05b59d3b2000000000000000000000000000000000000000060219280def989c36ae582aad87000000000000000000000000000000000000000000000000049f2c44375ed054600000000000000000000000000000000000000000000000000000000000315f3",
          "blockHash": "0x291f9814c662cf34b73b4568bf892598950aa9163373bbfc6f5832647ae0a33b",
          "blockNumber": "0x112a886",
          "blockTimestamp": "0x64ea3422",
          "transactionHash": "0x45be508eeb49369a7bc631b86cdd46510824b108563bd68cfd4b5ee28ede06eb",
          "transactionIndex": "0x1",
          "logIndex": "0x4",
          "removed": false
        }
      ],
      "logsBloom": "0x00000002400000000000000000000000000000000000000000000000000800001000000000000000000000000000000002000000080020000000000000000000000040000000000808000008000000000000000000000000000000008000000000000000000000000000100000000000000000000000000000000010000800000000000000000000000000800000000400000001010000000000000000000000000200004000200000000000800000000000000000000000000000000000000000000002000000000000000000000000000000000000000000000000000000000000200000000000000000000000000000010000000000400000000000000000",
      "type": "0x2",
      "transactionHash": "0x45be508eeb49369a7bc631b86cdd46510824b108563bd68cfd4b5ee28ede06eb",
      "transactionIndex": "0x1",
      "blockHash": "0x291f9814c662cf34b73b4568bf892598950aa9163373bbfc6f5832647ae0a33b",
      "blockNumber": "0x112a886",
      "gasUsed": "0x21034",
      "effectiveGasPrice": "0x2a65229c5",
      "blobGasPrice": "0x1",
      "from": "0xf39fd6e51aad88f6f4ce6ab8827279cfffb92266",
      "to": "0xe592427a0aece92de3edee1f18e0157c05861564",
      "contractAddress": null
    }
  ],
  "libraries": [],
  "pending": [],
  "returns": {},
  "timestamp": 1745099147,
  "chain": 1,
  "commit": "716f9e0"
}