{
  "transactions": [
    {
      "hash": "0x045f6bfd58e7b4dcffa3f5bf852b989a674e647085eaab80c392ba7a6a8b8314",
      "transactionType": "CALL",
      "contractName": null,
      "contractAddress": "0xc02aaa39b223fe8d0a0e5c4f27ead9083c756cc2",
      "function": "deposit()",
      "arguments": [],
      "transaction": {
        "from": "0xf39fd6e51aad88f6f4ce6ab8827279cfffb92266",
        "to": "0xc02aaa39b223fe8d0a0e5c4f27ead9083c756cc2",
        "gas": "0xf2ff",
        "value": "0x6f05b59d3b20000",
        "input": "0xd0e30db0",
        "nonce": "0x1f4",
        "chainId": "0x1"
      },
      "additionalContracts": [],
      "isFixedGasLimit": false
    },
    {
      "hash": "0x080df9f74ef5287da8eb8519d4f76f97e554fb35ab8a6699d44e81ab3f8e46a4",
      "transactionType": "CALL",
      "contractName": null,
      "contractAddress": "0xc02aaa39b223fe8d0a0e5c4f27ead9083c756cc2",
      "function": "approve(address,uint256)",
      "arguments": [
        "0xE592427A0AEce92De3Edee1F18E0157C05861564",
        "500000000000000000"
      ],
      "transaction": {
        "from": "0xf39fd6e51aad88f6f4ce6ab8827279cfffb92266",
        "to": "0xc02aaa39b223fe8d0a0e5c4f27ead9083c756cc2",
        "gas": "0xf879",
        "value": "0x0",
        "input": "0x095ea7b3000000000000000000000000e592427a0aece92de3edee1f18e0157c0586156400000000000000000000000000000000000000000000000006f05b59d3b20000",
        "nonce": "0x1f5",
        "chainId": "0x1"
      },
      "additionalContracts": [],
      "isFixedGasLimit": false
    },
    {
      "hash": "0x4b7304d27452a32b56e7f3987cc2f457a981743ccf978c68ae37d467e30856fb",
      "transactionType": "CALL",
      "contractName": null,
      "contractAddress": "0xe592427a0aece92de3edee1f18e0157c05861564",
      "function": "exactInputSingle((address,address,uint24,address,uint256,uint256,uint256,uint160))",
      "arguments": [
        "(0xC02aaA39b223FE8D0A0e5C4F27eAD9083C756Cc2, 0xA0b86991c6218b36c1d19D4a2e9Eb0cE3606eB48, 3000, 0x9f7cF1d1F558E57ef88a59ac3D47214eF25B6A06, 1693066910, 500000000000000000, 0, 0)"
      ],
      "transaction": {
        "from": "0xf39fd6e51aad88f6f4ce6ab8827279cfffb92266",
        "to": "0xe592427a0aece92de3edee1f18e0157c05861564",
        "gas": "0x2a5ec",
        "value": "0x0",
        "input": "0x414bf389000000000000000000000000c02aaa39b223fe8d0a0e5c4f27ead9083c756cc2000000000000000000000000a0b86991c6218b36c1d19d4a2e9eb0ce3606eb480000000000000000000000000000000000000000000000000000000000000bb80000000000000000000000009f7cf1d1f558e57ef88a59ac3d47214ef25b6a060000000000000000000000000000000000000000000000000000000064ea269e00000000000000000000000000000000000000000000000006f05b59d3b2000000000000000000000000000000000000000000000000000000000000000000000000000000000000000000000000000000000000000000000000000000000000",
        "nonce": "0x1f6",
        "chainId": "0x1"
      },
      "additionalContracts": [],
      "isFixedGasLimit": false
    }
  ],
  "receipts": [
    {
      "status": "0x1",
      "cumulativeGasUsed": "0xafee",
      "logs": [
        {
          "address": "0xc02aaa39b223fe8d0a0e5c4f27ead9083c756cc2",
          "topics": [
            "0xe1fffcc4923d04b559f4d29a8bfc6cda04eb5b0d3c460751c2402c5c5cc9109c",
            "0x000000000000000000000000f39fd6e51aad88f6f4ce6ab8827279cfffb92266"
          ],
          "data": "0x00000000000000000000000000000000000000000000000006f05b59d3b20000",
          "blockHash": "0xc7881647ffc34dbe62c32c435519d9bb0e103326b3e3c8485d1032b21e67e582",
          "blockNumber": "0x112a881",
          "blockTimestamp": "0x64ea2d1d",
          "transactionHash": "0x045f6bfd58e7b4dcffa3f5bf852b989a674e647085eaab80c392ba7a6a8b8314",
          "transactionIndex": "0x0",
          "logIndex": "0x0",
          "removed": false
        }
      ],
      "logsBloom": "0x00000000000000000000000000000000000000000000000000000000000000000000000000000000000000000000000002000000080000000000000000000000000000000000000000000000000000000000000000000000000000008000000000000000000000000000000100000000000000000000000000000000000000000000000000000000000000000000000000000001000000000000000000000000000000000000000000000000000000000000000000000000000000000000000000000000000000200000000000000000000000002000000000000000000000000000200000000000000000000000000000000000000000400000000000000000",
      "type": "0x2",
      "transactionHash": "0x045f6bfd58e7b4dcffa3f5bf852b989a674e647085eaab80c392ba7a6a8b8314",
      "transactionIndex": "0x0",
      "blockHash": "0xc7881647ffc34dbe62c32c435519d9bb0e103326b3e3c8485d1032b21e67e582",
      "blockNumber": "0x112a881",
      "gasUsed": "0xafee",
      "effectiveGasPrice": "0x5221834b1",
      "blobGasPrice": "0x1",
      "from": "0xf39fd6e51aad88f6f4ce6ab8827279cfffb92266",
      "to": "0xc02aaa39b223fe8d0a0e5c4f27ead9083c756cc2",
      "contractAddress": null
    },
    {
      "status": "0x1",
      "cumulativeGasUsed": "0xb3e4",
      "logs": [
        {
          "address": "0xc02aaa39b223fe8d0a0e5c4f27ead9083c756cc2",
          "topics": [
            "0x8c5be1e5ebec7d5bd14f71427d1e84f3dd0314c0f7b2291e5b200ac8c7c3b925",
            "0x000000000000000000000000f39fd6e51aad88f6f4ce6ab8827279cfffb92266",
            "0x000000000000000000000000e592427a0aece92de3edee1f18e0157c05861564"
          ],
          "data": "0x00000000000000000000000000000000000000000000000006f05b59d3b20000",
          "blockHash": "0xb0e3077d190090d11581e274b553020f11b60b6b488876267f8f03424b7f9f14",
          "blockNumber": "0x112a882",
          "blockTimestamp": "0x64ea2d1d",
          "transactionHash": "0x080df9f74ef5287da8eb8519d4f76f97e554fb35ab8a6699d44e81ab3f8e46a4",
          "transactionIndex": "0x0",
          "logIndex": "0x0",
          "removed": false
        }
      ],
      "logsBloom": "0x00000002000000000000000000000000000000000000000000000000000000000000000000000000000000000000000002000000080000000000000000200000000000000000000000000000000000000000000000000000000000000000000000000000000000000000100100000000000000000000000000000000000000000000000000000000000000000000000000000000000000000000000000000000020000000000000000000000800000000000000000000000000000000000000000000000000000200000000000000000000000002000000000000000000000000010200000000000000000000000000000000000000000000000000000000000",
      "type": "0x2",
      "transactionHash": "0x080df9f74ef5287da8eb8519d4f76f97e554fb35ab8a6699d44e81ab3f8e46a4",
      "transactionIndex": "0x0",
      "blockHash": "0xb0e3077d190090d11581e274b553020f11b60b6b488876267f8f03424b7f9f14",
      "blockNumber": "0x112a882",
      "gasUsed": "0xb3e4",
      "effectiveGasPrice": "0x47f119a15",
      "blobGasPrice": "0x1",
      "from": "0xf39fd6e51aad88f6f4ce6ab8827279cfffb92266",
      "to": "0xc02aaa39b223fe8d0a0e5c4f27ead9083c756cc2",
      "contractAddress": null
    }
  ],
  "libraries": [],
  "pending": [],
  "returns": {},
  "timestamp": 1745097350,
  "chain": 1,
  "commit": "716f9e0"
}